:020000040800F2
:10000000404D002001010008331B0008F3180008D0
:10001000311B00088F0200084D2800080000000076
:10002000000000000000000000000000692500083A
:100030000F040008000000008D2400086B25000854
:100040001B0100081B0100081B0100081B01000820
:100050001B0100081B0100081B0100081B01000810
:100060001B0100081B0100081B0100081B01000800
:100070001B0100081B0100081B0100081B010008F0
:100080001B0100081B0100081B0100081B010008E0
:100090001B0100081B0100081B0100081B010008D0
:1000A0001B0100081B0100081B0100081B010008C0
:1000B0001B0100081B010008D12500081B010008D6
:1000C0001B0100081B0100081B0100081B010008A0
:1000D0001B010008E52700081B0100081B010008A0
:1000E0001B0100081B0100081B010008DFF80CD0F1
:1000F00000F090F800480047D52E0008404D002041
:100100000648804706480047FEE7FEE7FEE7FEE7B1
:10011000FEE7FEE7FEE7FEE7FEE7FEE7CD25000887
:10012000ED00000840EA01039B0703D009E008C97D
:10013000121F08C0042AFAD203E011F8013B00F8AC
:10014000013B521EF9D27047D2B201E000F8012BF8
:10015000491EFBD270470022F6E710B513460A4647
:1001600004461946FFF7F0FF204610BD30B505469E
:100170002A460B4612F8010B13F8014B08B1A042B6
:10018000F8D01CB1002802D06D1CF1E7284630BD24
:1001900010B5044604E00B7800F8013B03B1491C9C
:1001A000521EF8D2204610BDCAB2401E10F8011FE0
:1001B0008A4202D00029F9D100207047421C10F871
:1001C000011B0029FBD1801A704710B5002200E006
:1001D000521C835C8C5CA34201D1002BF8D1D8B2B5
:1001E000E1B2401A10BD30B50B4601460020202276
:1001F000012409E021FA02F59D4205D303FA02F534
:10020000491B04FA02F52844151EA2F10102F1DC93
:1002100030BD0000064C074D06E0E06840F00103E9
:1002200094E8070098471034AC42F6D3FFF762FF1A
:10023000A8860008C886000870B58C1810F8015B05
:1002400015F0070301D110F8013B2A1106D110F86F
:10025000012B03E010F8016B01F8016B5B1EF9D173
:100260002B0705D40023521E0DD401F8013BFAE7F9
:1002700010F8013BCB1A921C03E013F8015B01F864
:10028000015B521EF9D5A142D8D3002070BDFEE714
:1002900010B50B4C00220421204600F0B8FB0022D0
:1002A0001021204600F0B3FB01224021204600F03F
:1002B000AEFB01220221204600F0A9FB002010BD68
:1002C0000008014001B54FF47A73012269460248E3
:1002D00000F04AFF08BD000048080020012000F09F
:1002E0000DB8000010B50121034800F08BFB012878
:1002F00000D0002010BD0000000C0140044B08B1EC
:10030000012200E000220121184600F080BB00001D
:10031000000C01402DE9F05F82468B460020FFF77C
:10032000EDFF142000F06CFA012211461C4800F089
:100330006EFB3C2003F096F8FFF7D4FF4FF0FF3937
:1003400058BB4FF47A742146012000F04EF820BBD0
:100350002146002000F049F8F8B900F023F8C5B2B2
:1003600000F020F800F0FF0800F01CF8C4B200F024
:1003700019F8C7B200F016F8C6B20120FFF7BEFFA9
:1003800005EB080020443844B04206D1CAF80050BA
:100390000020CBF80040BDE8F09F4846FBE7000096
:1003A000000C01402DE9F04100242546671E4FF462
:1003B0007A763146012000F018F870B9282003F051
:1003C00051F86400FFF78EFF012801D144F00104C9
:1003D0003146002000F009F810B13846BDE8F08140
:1003E0006D1C082DE5DB2046F8E770B50C46054688
:1003F00008E0FFF777FFA84201D1002070BD01207F
:1004000003F030F8641EF4D24FF0FF3070BD704737
:100410002DE9F0414FF49473002110271E468022ED
:10042000084600F054F900242146002000F03AF973
:10043000242000F003F90025FF2000F019F96D1CBD
:10044000ADB2BD42F8D3641CA4B2B442ECD3BDE853
:10045000F04100F05EB900002DE9F04180464FF414
:100460009473002110271E468022084600F02FF9C1
:1004700000242146002000F015F9242000F0DEF8C9
:100480005FF0000504FB075018F8000000F0F0F8DA
:100490006D1CADB2BD42F5D3641CA4B2B442E8D326
:1004A000BDE8F04100F035B970B5044600F0A8F899
:1004B000012000F0C3F8272000F0DAF8012000F056
:1004C000D7F8002000F0D4F80C2000F0B7F8D720BF
:1004D00000F0CEF8D62000F0CBF89D2000F0C8F850
:1004E0002C2000F0ABF8A82000F0C2F83A2000F071
:1004F000A5F81A2000F0BCF83B2000F09FF8082077
:1005000000F0B6F83C2000F099F8032000F0B0F8B5
:10051000112000F093F8032000F0AAF8322000F038
:100520008DF834B1012C0ED0BDE870400BA002F064
:10053000EBB9194D0024285D00F09AF8641CA4B2B0
:100540001E2CF8D370BD144D00241E35285D00F01C
:100550008FF8641CA4B21E2CF8D370BD446562757C
:10056000673A206572726F722C20746865204D6F37
:100570006465206973204550445F32494E395F46B7
:10058000554C4C206F72204550445F32494E395FC4
:1005900050415254000000005685000810B509A0D3
:1005A00002F0B2F90D4C02E0642000F029F90821B4
:1005B000204600F027FA0128F6D0BDE8104008A038
:1005C00002F0A2B944656275673A20652D506170EA
:1005D000657220627573790D0A0000000008014001
:1005E00044656275673A20652D50617065722062BE
:1005F0007573792072656C656173650D0A00000082
:1006000010B50D4C01220221204600F000FAC8204E
:1006100000F0F6F800220221204600F0F8F902204E
:1006200000F0EEF801220221204600F0F0F9BDE8CA
:100630001040C82000F0E4B80008014070B50B4C31
:10064000054600220421204600F0E1F90022102195
:10065000204600F0DCF92846FFF734FE2046BDE8CE
:1006600070400122102100F0D2B9000000080140C2
:1006700070B50B4C054601220421204600F0C7F955
:1006800000221021204600F0C2F92846FFF71AFE8A
:100690002046BDE870400122102100F0B8B90000EA
:1006A0000008014070B505460C464E20FFF7C6FF16
:1006B000C5F3C700FFF7DCFF4F20FFF7BFFFE0B235
:1006C000FFF7D6FF200ABDE87040FFF7D1BF2DE944
:1006D000F04107461C4616460D464420FFF7AEFF84
:1006E000C7F3C700FFF7C4FFC6F3C700FFF7C0FF9B
:1006F0004520FFF7A3FFE8B2FFF7BAFF280AFFF78C
:10070000B7FFE0B2FFF7B4FF200ABDE8F041FFF702
:10071000AFBF10B52220FFF791FFC420FFF7A8FF5D
:100720002020FFF78BFFFF20FFF788FFBDE8104078
:10073000FFF734BF08B53220034600901522F6219A
:10074000064801F049FA4FF4FA6000F059F80448FD
:100750000068FFF781FE002008BD00000C010020AA
:10076000A802002072B6FEE710B590F82110002410
:10077000022903D00421816301243DE001680A6855
:1007800022F00E020A6001680A6822F001020A6083
:100790001A4A0168914201D1012121E0174A14321D
:1007A000914201D110211BE0144A2832914201D11B
:1007B000891515E0114A3C32914201D189140FE0AC
:1007C0000E4A5032914202D14FF4803108E00B4A78
:1007D0006432914202D14FF4801101E04FF08071F8
:1007E000064A083A5160012180F82110002180F862
:1007F0002010416B01B18847204610BD080002401F
:1008000070B5044600F008F90546601C02D00448A3
:100810000078044400F000F9401BA042FAD370BDF8
:100820006C0200202DE9F84FDFF8B891002409F19F
:10083000040A0AF1040B23460F270BF1040EC9E04A
:100840000125A5402A40AA427DD1674ED1F804C0B7
:10085000ACEB0608B44532D014DCBCF1030F3AD03F
:1008600009DCBCF1000F2AD0BCF1010F1CD0BCF197
:10087000020F31D11DE0BCF1110F17D0BCF1120FE6
:100880002AD119E0B8F5881F19D006DCB8F5803FE9
:1008900015D0B8F5801F1FD111E0B8F5001F0ED09C
:1008A000B8F5041F18D10AE0CB6815E0CB681B1D12
:1008B00012E0CB6808330FE0CB680C330CE08B6898
:1008C0002BB1012B4FF0080303D0456104E0042352
:1008D00002E0056100E00023FF2A01D8064601E09E
:1008E00000F104064FEA840501D9A5F12005D6F8E8
:1008F000008007FA05FC28EA0C0803FA05F548EA27
:100900000508C6F800804D68ED0062D5374DAE6928
:1009100046F00106AE61AD6924F0030605F001055D
:100920000095334D06EB050CDCF80850A607360F92
:1009300007FA06F825EA0805DFF8B880404503D134
:100940004FF0000817E044E0DFF8AC80404502D1EA
:100950004FF001080FE0DFF8A480404502D14FF0CE
:10096000020808E0DFF89880404502D14FF0030804
:1009700001E04FF0040808FA06F848EA0508CCF848
:1009800008804D68D9F80060ED034D4601D5164347
:1009900000E096432E604D68DAF80060AD035546DE
:1009A00001D5164300E096432E604D68DBF80060E9
:1009B000ED025D4601D5164300E096432E604D687A
:1009C000DEF80060AD02754601D5164300E096439F
:1009D0002E60641C0D682A46E5407FF431AFBDE807
:1009E000F88F0000000401400000111000100240C8
:1009F0000000014000080140000C014000100140CF
:100A0000001401408068084000D0012070470AB1FE
:100A1000016170470904FBE70148806870470000E6
:100A20006C0200200248816802781144816070479E
:100A30006C020020074810B5016841F01001016008
:100A4000032000F075F8002000F006F800F024F80C
:100A5000002010BD0020024070B50D4D04464FF43B
:100A60007A712878B1FBF0F00A490968B1FBF0F01F
:100A700000F02DFC48B9102C07D200222146501E50
:100A800000F036F800206C6070BD012070BD0000E1
:100A90006C020020780200200C4808B5816941F002
:100AA00001018161816901F001010091C16941F099
:100AB0008051C161C06900F08050009004484168D5
:100AC00021F0E06141F00071416008BD001002407A
:100AD00000000140002809DB00F01F0201219140C5
:100AE0004009800000F1E020C0F8001170470000CC
:100AF000F0B40E4B1B680C46C3F30223C3F1070589
:100B0000042D00D90425191D072901D2002300E076
:100B1000DB1E012606FA05F1491E214099409E4040
:100B2000761E16403143F0BC01F0FEBE0CED00E035
:100B3000064900F0070208684FF6FF03184040EA34
:100B40000220034A10430860704700000CED00E0EB
:100B50000000FA052DE9F0470F46050061D0434E2D
:100B6000306800F00700B84209D2306820F0070072
:100B700038433060306800F00700B84251D128682F
:100B80003B4C810712D5400703D5606840F4E06014
:100B900060602878000703D5606840F460506060AA
:100BA0006068A96820F0F000084360602878C007FA
:100BB00028D06868012810D02168022810D0890741
:100BC00000292EDA616821F0030101436160FFF71B
:100BD00023FF804641F288390DE021688903EFE761
:100BE0008901EDE7FFF718FFA0EB0801494502D99D
:100BF0000320BDE8F0876068696800F00C00B0EB86
:100C0000810FEFD1306800F00700B8420BD930688F
:100C100020F0070038433060306800F00700B84229
:100C200001D00120E5E72878400705D56068E9682C
:100C300020F4E060084360602878000706D560680B
:100C4000296920F4605040EAC100606000F03EF87D
:100C50006168084AC1F30311515CC8400649086045
:100C600006480068FFF7F8FE0020C2E700200240B7
:100C7000001002408034000878020020700200203A
:100C800001480068704700007802002004480549C8
:100C900000684968044AC1F30221515CC8407047AA
:100CA00078020020001002409034000804480549F2
:100CB00000684968044AC1F3C221515CC8407047CA
:100CC00078020020001002409034000812A185B084
:100CD0000FC98DE80F0014A0144A006804905168F1
:100CE000134801F00C03042B10D0082B0ED1C1F3D4
:100CF0008343C9031DF803000AD5516804AAC1F350
:100D00004041515C0A4A5043B0FBF1F005B07047D6
:100D100008494843FAE700000203040506070809EA
:100D20000A0B0C0D0E0F1010010200000010024003
:100D300000127A0000093D002DE9F84F040070D040
:100D40002078C04DC00749D06868C0F381000128F1
:100D500007D06868C0F38100022809D16868C00321
:100D600006D52868800339D560680028E7D035E0CB
:100D70006068B0F5803F0BD010B1B0F5A02F11D056
:100D8000286820F480302860286820F4802002E061
:100D9000286840F480302860606890B1FFF73CFE1E
:100DA00006460AE0286840F480202860F0E700BF8B
:100DB000FFF732FE801B642873D828688003F7D5BC
:100DC0000CE0FFF729FE064605E000BFFFF724FE12
:100DD000801B6428F0D828688003F7D420789A4EC6
:100DE00080074FF001094FF0000839D5686810F00E
:100DF0000C0F07D06868C0F38100022809D1686829
:100E0000C00306D42868800714D52069012808D1BA
:100E100010E02069B0B1C6F80090FFF7FDFD07466D
:100E200005E00AE1FFF7F8FDC01B0228C4D82868D6
:100E30008007F7D52868616920F0F80040EAC10012
:100E400028600DE0C6F80080FFF7E6FD074604E0E5
:100E5000FFF7E2FDC01B022823D828688007F7D4DB
:100E6000207800072CD57948A169D9B1C0F8009045
:100E7000FFF7D2FD074604E0FFF7CEFDC01B0228B6
:100E80000FD8686A8007F7D571484FF4FA510068A7
:100E9000B0FBF1F0009000BF0098411E0091FAD223
:100EA0000EE080E0C0F80080FFF7B6FD074604E0E2
:100EB000FFF7B2FDC01B022875D8686A8007F7D417
:100EC0002078400760D5E8690027C00008D4E869A9
:100ED00040F08050E861E869012700F08050009000
:100EE0005C480168C90513D40168834641F48071E8
:100EF0000160FFF791FD824606E000BFFFF78CFD21
:100F0000A0EB0A0064284ED8DBF80000C005F5D538
:100F1000E06801280AD008B1052813D0286A20F01B
:100F200001002862286A20F0040002E0286A40F0EC
:100F300001002862E06841F2883B98B1FFF76CFD40
:100F400082460BE0286A40F004002862EEE700BF0A
:100F5000FFF762FDA0EB0A0159455AD8286A8007BD
:100F6000F6D50CE0FFF758FD824605E0FFF754FD8B
:100F7000A0EB0A0159454CD8286A8007F6D41FB166
:100F8000E86920F08050E861E06988B36968C1F3DE
:100F90008101022944D00228C6F8608004D0FFF7FE
:100FA0003BFD044638E034E0FFF736FD074604E039
:100FB000FFF732FDC01B02282BD828688001F7D428
:100FC000206AB0F5803F05D16868A16820F4003040
:100FD00008436860D4E908010843696821F4741182
:100FE00008436860C6F86090FFF716FD044606E007
:100FF00025E000BFFFF710FD001B022809D8286874
:101000008001F7D51BE000BFFFF706FD001B02289B
:1010100002D90320BDE8F88F28688001F4D40EE0DF
:101020000128F7D06868226A00F48031914204D127
:10103000616A00F47010884201D00120EAE70020C4
:10104000E8E70000001002400000424280044242F3
:10105000780200200070004070B5040009D0606A7A
:10106000002540B125616561A56294F8510040B149
:101070000CE0012070BD6068B0F5827FF4D0E561BE
:10108000F2E784F85050204600F040F8022084F83F
:1010900051002068016821F040010160A088218989
:1010A00000F4827001F404410843A18901F4006155
:1010B0000843217C01F002010843217D01F0010178
:1010C0000843218B01F400710843217F01F03801AE
:1010D000084394F8201001F080010843218D01F4A9
:1010E0000051084321680860A069042101EA10400A
:1010F000216848602068C16921F40061C1616565AB
:10110000012084F85100002070BD000000B585B0BA
:101110000021009101910291039100680F498842DA
:1011200019D10F48816941F480518161816901F4CD
:1011300080510491816941F00401816180696946AF
:1011400000F004000490A020009002200190039081
:101150000448FFF767FB05B000BD00000030014008
:1011600000100240000801402DE9F84F044690F8B5
:10117000500000271D461646894601280DD04FF025
:10118000010B84F850B0FFF747FC804694F85100FB
:10119000BA46012804D0022793E00220BDE8F88F68
:1011A000B9F1000F73D0002E71D0032084F85100E4
:1011B000C4F854A0C4F83090A686E686C4F838A0D7
:1011C000A4F83CA0A4F83EA0C4F844A0C4F840A0F1
:1011D000A068B0F5004F09D12068016821F04001F6
:1011E00001602068016841F4804101602068016865
:1011F000490603D4016841F040010160E068B0F5A0
:10120000006F606803D030B3012E24D041E008B1F4
:10121000012E1CD1206B21680088C86006E0206880
:101220008168890709D5216B0988C160206B801C02
:101230002063E08E401EE08609E0FFF7EDFBA0EBA7
:101240000800A84202D3681C01D031E07DB3E08ED3
:101250000028E4D120E0206B21680078087306E0C4
:1012600020688168890709D5216B09780173206B93
:10127000401C2063E08E401EE0860AE0FFF7CCFBB6
:10128000A0EB0800A84203D3681C02D010E017E0CE
:101290006DB1E08E0028E3D142462946204601F098
:1012A000F6F808B120206065A06818B106E0FFE7F5
:1012B000032706E02068C16880680090606D00B177
:1012C000012784F851B084F850A0384666E710B57D
:1012D000401EB0F1807F01D3012010BD4FF0E0240B
:1012E00060610F21601701F01FFB0020A061072043
:1012F0002061002010BD70477047000070B590F865
:101300003C20012A26D0012480F83C40022280F8AB
:101310003D2003685A689D6822F070060A683243CF
:101320005A600D4B02689A4208D0B2F1804F05D046
:101330000A4B9A4202D00A4B9A4204D1496825F0DE
:1013400080031943916080F83D40002180F83C10F3
:10135000084670BD022070BD002C01400004004012
:101360000008004010B5040003D094F83D0010B10F
:1013700007E0012010BD002084F83C00204600F06A
:101380001FF8022084F83D00211D206801F026F995
:10139000012084F8460084F83E0084F83F0084F879
:1013A000400084F8410084F8420084F8430084F847
:1013B000440084F8450084F83D00002010BD000082
:1013C00008B500680B49884212D10B48C16941F049
:1013D0000401C161C069002200F0040000901146C0
:1013E0001E20FFF785FBBDE808401E20FFF772BBFB
:1013F00008BD0000000800400010024090F83D10B9
:10140000012901D001207047022180F83D100168B8
:10141000CA6842F00102CA6000680B49884208D0DD
:10142000B0F1804F05D00949884202D0084988426E
:1014300004D1816801F00701062903D0016841F059
:101440000101016000207047002C014000040040B1
:101450000008004070B5044690F83C00012817D001
:10146000012584F83C50022084F83D002068826801
:1014700022F0770222F47F4282600868502830D040
:101480000DDC20284DD005DC98B310283BD148E076
:10149000022070BD302844D0402834D139E0602883
:1014A00028D0702806D0B0F5805F2CD0B0F5005F52
:1014B00029D10AE0CB68D1E90121206801F0C4F804
:1014C0002068816841F0770109E0CB68D1E901210A
:1014D000206801F0B9F82068816841F4804181609A
:1014E00011E0CA684968206801F0C0F850212068FE
:1014F00007E016E0CA684968206801F0C8F8602172
:10150000206801F0ABF884F83D50002084F83C00DE
:1015100070BDCA684968206801F0A8F840212068B9
:10152000EFE7226801461046EBE7704770B50446C6
:10153000006801694FF00005C943890715D4C168E7
:10154000C943890711D4E91E016101202077206871
:1015500080698007204602D0FFF7E7FF04E000F033
:1015600098F8204600F096F8257720680169C9436D
:10157000490717D4C168C943490713D46FF0040160
:101580000161022020772068806910F4407F2046A6
:1015900002D0FFF7CAFF04E000F07BF8204600F01D
:1015A00079F8257720680169C943090716D4C1680D
:1015B000C943090712D46FF00801016104202077A4
:1015C0002068C0698007204602D0FFF7AEFF04E024
:1015D00000F05FF8204600F05DF82577206801698B
:1015E000C943C90617D4C168C943C90613D46FF0EB
:1015F00010010161082020772068C06910F4407F45
:10160000204602D0FFF791FF04E000F042F82046A8
:1016100000F040F8257720680169C943C90708D15F
:10162000C168C943C90704D1891E0161204600F081
:1016300033F820680169C943090609D4C168C94360
:10164000090605D46FF0800101612046FFF753FEC3
:1016500020680169C943490609D4C168C9434906DC
:1016600005D46FF040010161204600F01DF82068AC
:101670000169C94389060BD4C168C943890607D4E7
:101680006FF0200101612046BDE87040FFF734BED5
:1016900070BD70477047000002484168491C4160B6
:1016A00070470000000000207047704710B50446E6
:1016B0000068C16821F49071C1602068416921F01F
:1016C00001014161206841694FF020024B064FF053
:1016D00000010FD5436923F040034361606B48B1BB
:1016E00008494163606BFFF73FF848B1606B416B9D
:1016F000884705E0E18584F83A202046FFF7D5FFCA
:10170000002010BDB326000870B5040004D094F882
:101710003900002510B106E0012070BD84F8385072
:10172000204600F023F8242084F839002068C1689E
:1017300021F40051C160204600F0C6FF2068016915
:1017400021F4904101612068416921F02A01416141
:101750002068C16841F40051C160E563202084F82D
:10176000390084F83A00002070BD000030B585B023
:10177000002400940194029403940068184988425C
:101780002CD11848816941F480418161816901F45B
:1017900080410491816941F0040181618069124DA9
:1017A00000F0040004904FF40070009002200190BB
:1017B0000320039069462846FFF734F82815CDE941
:1017C0000004694628460294FFF72CF800221146CF
:1017D0002520FFF78DF92520FFF77CF905B030BDF6
:1017E00000380140001002400008014090F83A30F3
:1017F000202B22D1F9B1F2B190F83830012B1CD056
:1018000081628285C2850021C163222280F83A204C
:1018100080F838100168CA6842F48072CA600168B2
:101820004A6942F001024A610068C16841F0200142
:10183000C1600020704701207047022070470000FF
:101840002DE9F843044690F839001F4616460D4628
:1018500020284CD1C5B1BEB194F83800012846D03B
:10186000012084F838004FF00008C4F83C802120A3
:1018700084F83900FFF7D0F8A6848146E684A06892
:10188000B0F5805F03D004E00120BDE8F883206953
:1018900028B12E465FF0000584F838800EE000265F
:1018A000FAE78021204600F06BFFA0B9AEB116F830
:1018B000010B21684860E08C401EE084E08C4B46C0
:1018C0004FF0000200970028EBD14FF04001204676
:1018D00000F056FF30B10320D7E735F8020BC0F314
:1018E0000800E6E7202084F839000020CDE7022038
:1018F000CBE7FEE72DE9F04186B0002424480094B0
:10190000019402940394816941F02001816181690D
:1019100001F020010491816941F004018161816934
:1019200001F004010491816941F00801816180693D
:10193000184F00F008000490002256213846FFF7A7
:1019400066F8DFF85480002201214046FFF75FF877
:10195000562001250226CDE90005CDE9024669465B
:101960003846FEF75FFF0820CDE900046946384697
:101970000294FEF757FF1120CDE90050CDE9025641
:1019800069464046FEF74EFF06B0BDE8F081000014
:101990000010024000080140000C0140104810B542
:1019A0000E4901604FF48271416000218160C16085
:1019B0004FF400720161C0E905122822C0E9072135
:1019C000416281620A21C162FFF746FB002803D011
:1019D000BDE81040FEF7C6BE10BD0000003001405B
:1019E0004808002010B586B00024184800940194DF
:1019F00002940394049414490594016043F63F0152
:101A0000C0E9011446F2A711C0E9031480218161E5
:101A1000FFF7A8FC08B1FEF7A5FE4FF48050009038
:101A200069460A48FFF716FD08B1FEF79BFE0494CD
:101A300004A906480594FFF761FC002801D0FEF7D1
:101A400091FE06B010BD000000080040A008002074
:101A50000C4810B50A4901604FF4E13141600021A2
:101A600081600C22C160C0E904128161C161FFF78D
:101A70004BFE002803D0BDE81040FEF773BE10BD3A
:101A800000380140E8080020FEB5FEF701FC002008
:101A9000FEF70AFDFEF7BCFC234DFF204FF49477C0
:101AA00000904FF487733A468021286800F03CFC90
:101AB000286800F057FCFF2000F03CF800240126C5
:101AC000CDE9004615233A4619462046029400F017
:101AD0002BF9CDE90046F52280231521104602940A
:101AE00000F022F9CDE90046482280231521104656
:101AF000029400F019F94FF4FA642046FEF780FED4
:101B00002868FEF7A9FC14200346009000224FF439
:101B10008A71064800F060F82046FEF771FE2868DA
:101B2000FEF79AFC0020FEBDA8020020D000002095
:101B3000FEE7FEE730B52749CA8A022A08D0042A00
:101B40001BD0072A18D140EA00100022C3B23CE0A3
:101B50000022C3B20DE0002006E000BF02FB040437
:101B60000D68401C80B22B554C8A8442F6D8521C1A
:101B700092B2888A9042EED830BD830143EA0013C6
:101B8000002243EA80030343DBB20CE0002005E0BF
:101B900002FB04040D68401C80B22B554C8A844221
:101BA000F6D8521C92B2888A9042EFD830BD0020FD
:101BB00006E000BF02FB04040D68401C80B22B55F8
:101BC0004C8A8442F6D8521C92B2888A9042EED84F
:101BD00030BD0000280900202DE9F0471E46904640
:101BE000894682460025089F20E000241AE0F01D67
:101BF000C008684300EBD40080B204F007021AF872
:101C000000108020D040014208EB050081B209EBB2
:101C1000040080B201D0002200E0FF2200F0A8FB07
:101C2000641CA4B2B442E2D36D1CADB2BD42DCD39D
:101C3000BDE8F0872DE9F05F81462A481E46DDF8B1
:101C40002CB0838888464B4502D3C188414504D2D5
:101C5000BDE8F05F24A000F057BEB088410700D077
:101C6000012101EBD000203AF1885043484331680C
:101C70004FF0800A0F1800252FE0002424E000BF59
:101C8000BBF1FF0F3A7804F007012AFA01F002EAEB
:101C9000000201D00AB908E082B108EB050081B268
:101CA00009EB040080B20A9A06E008EB050081B255
:101CB00009EB040080B25A4600F05AFBE0434007AB
:101CC00000D17F1C641CA4B2B088A042D8D830795F
:101CD000400700D07F1C6D1CADB2F088A842CCD864
:101CE000BDE8F09F2809002044656275673A2050DE
:101CF00061696E745F447261774368617220496EF6
:101D000070757420657863656564732074686520F8
:101D10006E6F726D616C20646973706C6179207292
:101D2000616E67650D0A00002DE9FE4F1D46304BC0
:101D300016469A88824206D3DB888B4203D3B2428E
:101D400001D3AB4204D2BDE8FE4F2AA000F0DCBDB7
:101D500083468A46321A00D5821B91466A1A002AA7
:101D600000DD4A1B90464FF0FF32B34501D20120FF
:101D700000E010460290AA4500D2012209EB0804B7
:101D8000002701927F1C0E98FFB2012805D1032085
:101D9000B7FBF0F100FB1170F0B10120DDE90C237D
:101DA00000905146584600F0ADF800BFB8EB440F24
:101DB00007DCB3451AD0029944440BEB01001FFA2B
:101DC00080FBB9EB440FDDDBAA450FD001984C44F2
:101DD00050441FFA80FAD5E701200090FF225146B7
:101DE00058460D9B00F08EF80027DFE7BDE8FE8F18
:101DF0002809002044656275673A205061696E7455
:101E00005F447261774C696E6520496E707574200D
:101E10006578636565647320746865206E6F726DA4
:101E2000616C20646973706C61792072616E6765A2
:101E30000D0A00002DE9FF4FADF5037D8846DDE971
:101E400090AB814600244FF48077154626463946EC
:101E500042A8FEF780F9394602A8FEF77CF9184837
:101E600042AA83884B4502D3C188414506D215A0BA
:101E700000F04AFD0DF5077DBDE8F08F0A2102A8AC
:101E800095FBF1F301FB135395FBF1F5303303554B
:101E9000641C24B2002DF3D11146002C08DD031977
:101EA00013F8013C8B55761C641E36B224B2F4E75D
:101EB000CDE900BA41464846869B00F08FF9D9E744
:101EC0002809002044656275673A205061696E7484
:101ED0005F4469734E756D20496E70757420657826
:101EE000636565647320746865206E6F726D616CE4
:101EF00020646973706C61792072616E67650D0A88
:101F0000000000002DE9F05F2B4D93468146AA8822
:101F10000A981C4688464A4502D3EA8842450ED2B2
:101F200026A000F0F1FCAA88494634A000F0ECFCA1
:101F3000EA884146BDE8F05F39A000F0E5BC012821
:101F400001D0002634E00025681E00EB440718E0AD
:101F500009EB05000026A0EB040A0EE0BAF1000F21
:101F60000DD408EB0600001B09D481B21FFA8AF0D9
:101F70005A4600F0FDF9761C36B2B742EEDC6D1C15
:101F80002DB2AF42E4DCBDE8F09F002509EB060767
:101F90007F1E09E008EB0500401E81B2B8B25A4628
:101FA00000F0E6F96D1C2DB2A542F3DB761C36B2CB
:101FB000A642EADBE7E700002809002044656275D5
:101FC000673A205061696E745F44726177506F693F
:101FD0006E7420496E7075742065786365656473EE
:101FE00020746865206E6F726D616C206469737017
:101FF0006C61792072616E67650D0A0058706F69B7
:102000006E74203D202564202C205061696E742E52
:102010005769647468203D20256420200D0A200043
:1020200059706F696E74203D202564202C2050610A
:10203000696E742E486569676874203D20256420A8
:10204000200D0A20000000002DE9F05F1D4690469B
:1020500006468A46DDF82CB0B6E07F294FF0000036
:1020600054D8AA884CE053232C68434314F8133007
:102070008B4244D153214843022101EB400004EB41
:102080000009002737E000242CE000BF4FEAE4708D
:1020900004EB507020F00700A4EB0002BBF1FF0F2F
:1020A00099F800104FF0800020FA02F001EA0001D8
:1020B00001D009B907E071B10AEB070081B230190C
:1020C00080B20A9A05E00AEB070081B2301980B2AB
:1020D0005A4600F04DF940482040072801D109F147
:1020E0000109641C2889A042D0DC287A400701D06D
:1020F00009F101097F1C6889B842C4DC02E0401C78
:102100008242B0DC08F10108E8885CE00127AB8876
:1021100054E053222C68424314F812C08C454CD131
:1021200007EB4202A45C98F80120944245D1532267
:1021300050430222296802EB400001EB000900270E
:1021400037E000242CE000BF4FEAE47004EB50704D
:1021500020F00700A4EB0002BBF1FF0F99F800107C
:102160004FF0800020FA02F001EA000101D009B925
:1021700007E071B10AEB070081B2301980B20A9A08
:1021800005E00AEB070081B2301980B25A4600F030
:10219000EFF811482040072801D109F10109641C1A
:1021A0002889A042D0DC287A400701D009F1010932
:1021B0007F1C6889B842C4DC02E0401C8342A8DC72
:1021C000288908F10208064498F8001000297FF4D5
:1021D00044AFBDE8F09F0000070000802DE9FC5FE0
:1021E00080461B4889460D4681884446DDF834B058
:1021F0001E461746A14203D3C1888246A94222D275
:10220000BDE8FC5F134800F07FBBB088BAF804302B
:102210000119994203D9F188444629448DB2F188C5
:10222000BAF806002944814201D944464D460C982B
:102230003346CDE900B029462046FFF7FBFCB088C5
:102240007F1C204484B23A78002ADED1BDE8FC9F8E
:1022500028090020648600082DE9FF4F85B02FA1D2
:1022600017468046DDE9125607C902AB4FF00A094E
:1022700083E8070039790898B1FBF9F19A46848818
:102280001AF80120CDE900654046089B0699FFF742
:10229000D1FC397908EB040BB1FBF9F209FB1211FF
:1022A0001FFA8BF01AF80120CDE90065089B06990A
:1022B000FFF7C0FCCDE900650BEB940000EB540088
:1022C00080B23A22089B0699FFF7B4FC797908EBB3
:1022D0004400B1FBF9F100EB54001AF80120CDE9FC
:1022E000006580B2089B0699FFF7A4FC7979089BEA
:1022F000B1FBF9F209FB12111AF8012004EB4401B9
:1023000001EB0800CDE9006500EB540080B20699AE
:10231000FFF790FC09B0BDE8F08F00003031323398
:10232000343536373839000070B50D4C049E002521
:10233000206021816281A6810220E0824E074FEA5F
:10234000D10000D0401C6082A282E381258223B1AB
:10235000B42B02D0A280E18070BDA180E28070BD6C
:102360002809002001490860704700002809002062
:10237000F0B43B4CA388834234D3E3888B4231D3FF
:102380002346E7891E895D89CFB15A2F1AD0B42F11
:102390001CD0B7F5877F40D10B46281A401E80B26B
:1023A000218AD9B1012916D0022904D0032934D1B8
:1023B000F11A491E8BB2281A401E80B20EE0034665
:1023C0000846EDE7711A491E8BB2E9E7301A401E44
:1023D00083B2681AE2E7F11A491E8BB29E4201D31A
:1023E000854203D2F0BC1FA000F08EBA1C49E58ADA
:1023F0004C8A0968022D12D0042D21D0072D0CD152
:10240000444304EB5304DB075B0FF025DD40085D1C
:102410001201A843DA4002430A55F0BC7047444316
:1024200004EBD3048020002A0D5D03F0070220FA9C
:1024300002F002D028430855EFE785430D55ECE73D
:10244000444304EB930094079B075D0F0A5CC02391
:10245000EB409A43230EEB4013430B54DDE700009F
:102460002809002044656275673A204578636565F0
:1024700064696E6720646973706C617920626F753E
:102480006E6461726965730D0A000000704738B5AB
:102490000B46009204460022802100F009F8002833
:1024A00004D0606D40F020006065032038BD00005E
:1024B0002DE9F8431E46914688460446089DFEF7DE
:1024C000ABFA401B351AFEF7A7FA07462548006805
:1024D000C0F3CB30684338E0701C37D0FEF79CFA6D
:1024E000C01BA84203D215B1009860B32CE020684D
:1024F000416821F0E00141606068B0F5827F0BD156
:10250000A068B0F5004F02D0B0F5806F04D120680C
:10251000016821F040010160A06AB0F5005F09D1B7
:102520002068016821F4005101602068016841F4CD
:1025300000510160012084F85100002084F850000F
:102540000320BDE8F8830025401E009020688168C4
:1025500038EA010004D000214945BDD10020F0E750
:102560000121F9E7780200207047FEF75BBA30B529
:102570008FB028216846FDF7EEFD14210AA8FDF76B
:10258000EAFD01210804CDE900100024029402258F
:102590000491CDE907504FF4E01009906846FEF72A
:1025A000CBFB08B172B6FEE70F20CDE90A054FF468
:1025B0008060CDE90C4002210AA80E94FEF7CAFA09
:1025C000002801D072B6FEE70FB030BD70470000A2
:1025D0000148FEF7ABBF0000A0080020F0B502687C
:1025E000164B174C174D4FF08047984205D0B84214
:1025F00003D0A04201D0A84203D122F070064A685D
:102600003243984205D0B84203D0A04201D0A8423C
:1026100003D122F44074CA6822434C6922F080023C
:10262000224302608A68C2620A688262984201D1CB
:102630000969016301214161F0BD0000002C0140E6
:10264000000400400008004010B5846842EA0322FC
:1026500024F47F440A432243826010BD826822F042
:1026600070020A4342F007018160704710B5036AA7
:10267000046A24F001040462846924F0F00444EA4A
:10268000021423F00A020A438461026210BD10B5ED
:10269000036A23F0100303628369046A23F470431E
:1026A00043EA023224F0A00343EA0111826101628D
:1026B00010BD10B5406A0021C185202180F83A1074
:1026C000FEF7F3FF10BD000070B504460068016915
:1026D000E26821F44051114301612169A068084377
:1026E000616908432168CA6841F20C639A43024356
:1026F000CA6020684169A26921F4407111434161B7
:102700001E492068884202D1FEF7D0FA01E0FEF7A8
:10271000BDFA00EBC00101EB00126068642180008B
:10272000B2FBF0F3B3FBF1F36FF018067343B2FBA7
:10273000F0F5B2FBF0F605EB8305322303EB05154C
:10274000B5FBF1F5B6FBF1F605F0F00505EB061566
:10275000B2FBF0F6B2FBF0F0B0FBF1F06FF0180254
:10276000504306EB800003EB0010B0FBF1F0216852
:1027700000F00F002844886070BD00000038014060
:102780002DE9F041984617460E460446069D1DE089
:10279000681C1BD02DB1FEF73FF9A0EB0800A84242
:1027A00014D92068C16821F4D071C16020684169E2
:1027B00021F001014161202084F8390084F83A00B9
:1027C000002084F838000320BDE8F081206800680C
:1027D00036EA000004D00020B842D9D00020F3E748
:1027E0000120F9E770B5154800680068800624D517
:1027F00013480068134CC1B200252088B0F5006F63
:102800001AD2114A1154401C81B22180042914D3D8
:10281000501810F8012C0A2A0FD110F8022C0D2A9A
:102820000BD110F8032C0A2A07D110F8040C0D283C
:1028300003D1054800F010FE258070BDE808002097
:102840000438014000000020B8020020FEE700002C
:1028500070B58EB0032901DA401E0C31642390FB61
:10286000F3F36FF018045C4300EB84001A24491C56
:1028700061430A2491FBF4F1DC1703EB9474A41078
:102880005B4204EB43030344C41700EB947003EB77
:10289000A000084410440721401E90FBF1F201FB08
:1028A0001200C01D90FBF1F201FB12052C2212490F
:1028B00002A8FDF737FCFF26002405EB450002A91E
:1028C00001EB4002CDE900460C4B46213046FFF7B4
:1028D000BBFBCDE90046094B09A25C21FF20FFF7B5
:1028E000B3FB4FF4FA60FDF78BFF06480068FDF775
:1028F000B3FD0EB070BD00002C8500087C020020E6
:10290000F6B20000A80200200FB4054B10B503A9D1
:10291000044A029800F028F810BC5DF814FB00008F
:10292000BD2E0008AC0200200907090E002804DBB8
:1029300000F1E02080F80014704700F00F0000F173
:10294000E02080F8141D704702E008C8121F08C17B
:10295000002AFAD170477047002001E001C1121F20
:10296000002AFBD1704700002DE9FF4F8BB09A463B
:102970000F460546002606E025280BD052460D9945
:1029800090476D1C761C28780028F5D10FB0304692
:10299000BDE8F08F0024A0460122604900E0044316
:1029A00015F8013F203B02FA03F00842F7D12878DE
:1029B0002E2817D115F8010F44F004042A280ED050
:1029C0006FF02F022878A0F1300109290AD808EB0E
:1029D000880102EB410100EB01086D1CF2E757F89A
:1029E000048B6D1C287869283ED006DC0028CDD0E9
:1029F00063280BD0642804D136E0732810D07528E2
:102A00004BD052460D999047761C85E017F8040B81
:102A10008DF8000000208DF80100E946012003E058
:102A200057F8049B4FF0FF3061074FF0000401D4CA
:102A30000AE0641C44450DDA8442FADB19F80410FC
:102A40000029F6D106E0641C8442FCDB19F804106E
:102A50000029F8D1264404E019F8010B52460D99DB
:102A60009047641EF8D257E001CF4FF00A0B0028C0
:102A700002DA40422D2102E0210504D52B218DF8F8
:102A80002410012103E0E10705D02021F7E70DF133
:102A9000200908910CE00021F9E701CF4FF00A0B63
:102AA000F9E75946FDF79FFB01F1300209F8012DC6
:102AB0000028F6D1ADEB090000F1200B600701D42E
:102AC0004FF00108D84502DDA8EB0B0000E0002024
:102AD0008046002406E009A85246005D0D99904703
:102AE000641C761C08988442F5DB04E030205246D2
:102AF0000D999047761CB8F10001A8F10108F5DCAA
:102B000005E019F8010B52460D999047761CBBF170
:102B10000001ABF1010BF4DC6D1C34E70928010066
:102B20002DE9F05F984616468A4681460025DDF875
:102B300028B010E000240AEB050708E009EB0400C8
:102B4000B9B280B25A46FFF713FC641CA4B2B44277
:102B5000F4D36D1CADB24545ECD3BDE8F09F000049
:102B600010B54FF480610548FDF7F5FA04490020DF
:102B70000880BDE8104003A0FFF7C6BEB8020020E1
:102B800000000020E68EA5E694B6E7BC93E586B289
:102B9000E58CBAE5B7B2E6B885E7A9BAE380820A60
:102BA000000000002DE9F04115A52946FDF7DEFAE9
:102BB000164F04004FF000061DD02846FDF7FEFA20
:102BC000051922212846FDF7EFFA002816D0441BEC
:102BD000642C0BD2224629463846FDF7D9FA3E55D9
:102BE0003946BDE8F0410AA0FFF78EBE09A0BDE856
:102BF000F041FFF789BE3E7014A0F8E7BDE8F08110
:102C00002274657874223A2200000000B806002081
:102C100025730A00E68F90E58F96E79A8420746505
:102C2000787420E5AD97E6AEB5E8BF87E995BFEFCC
:102C3000BC8CE8B685E587BAE7BC93E586B2E58C3F
:102C4000BAE5A4A7E5B08F0A00000000E69CAAE65A
:102C500089BEE588B0207465787420E5AD97E6AE4E
:102C6000B50A000070B516A52946FDF77FFA0400E5
:102C70004FF000061ED02846FDF7A0FA051947219F
:102C80002846FDF791FA002819D0441B642C0CD279
:102C9000224629460C48FDF77BFA0B4801460655AB
:102CA000BDE8704009A0FFF72FBE09A0BDE8704045
:102CB000FFF72ABE0448C838067014A0F6E770BDB6
:102CC000446174653A200000E407002025730A007F
:102CD000E68F90E58F96E79A84206C6173745F7538
:102CE000706461746520E5AD97E6AEB5E8BF87E92D
:102CF00095BFEFBC8CE8B685E587BAE7BC93E5865F
:102D0000B2E58CBAE5A4A7E5B08F0A00E69CAAE676
:102D100089BEE588B0204461746520E5AD97E6AED4
:102D2000B50A000070B516A52946FDF71FFA040084
:102D30004FF000061ED02846FDF740FA0519222163
:102D40002846FDF731FA002819D0441B642C0CD218
:102D5000224629460E48FDF71BFA0D480146065546
:102D6000BDE870400BA0FFF7CFBD0BA0BDE87040E1
:102D7000FFF7CABD06486438067016A0F6E770BDB6
:102D80002274656D7065726174757265223A2200F5
:102D90008007002025730A00E68F90E58F96E79A5A
:102DA00084206C6173745F75706461746520E5AD37
:102DB00097E6AEB5E8BF87E995BFEFBC8CE8B6856E
:102DC000E587BAE7BC93E586B2E58CBAE5A4A7E54A
:102DD000B08F0A00E69CAAE689BEE588B02075702F
:102DE0006461746520E5AD97E6AEB50A00000000A9
:102DF0002DE9F04115A52946FDF7B8F9174F040054
:102E00004FF000061DD02846FDF7D8F905192221FC
:102E10002846FDF7C9F9002816D0441B642C0BD2B4
:102E2000224629463846FDF7B3F93E553946BDE8F6
:102E3000F0410BA0FFF768BD0AA0BDE8F041FFF725
:102E400063BD3E7016A0F8E7BDE8F081226C6173A7
:102E5000745F757064617465223A22001C0700205B
:102E600025730A00E68F90E58F96E79A84206C61BF
:102E700073745F75706461746520E5AD97E6AEB5F7
:102E8000E8BF87E995BFEFBC8CE8B685E587BAE770
:102E9000BC93E586B2E58CBAE5A4A7E5B08F0A003D
:102EA000E69CAAE689BEE588B02075706461746509
:102EB00020E5AD97E6AEB50A0000000013B54FF669
:102EC000FF73012269460248FEF7BAFC00981CBD58
:102ED000E808002086B0FDF7ADFDFFF748FBFEF7E0
:102EE00009FDFEF7B5FDFEF759FDFEF77BFDF54D3B
:102EF000688800F07BFADFF8D0934C46C9F80000F0
:102F0000FEF7C2FDFDF7EAF9F048FEF777FA4FF455
:102F1000FA673846FDF774FC2068FDF79DFA012238
:102F2000EB49EC48FEF762FCEA48FEF7BFFBEAA07B
:102F3000FFF7EAFC7E103046FDF762FCE8A0FFF7E1
:102F4000E3FC3046FDF75CFCE8A0FFF7DDFC40F653
:102F5000B8342046FDF754FCECA0FFF7D5FC38460A
:102F6000FDF74EFCEDA0FFF7CFFC3846FDF748FC1F
:102F7000F5A0FFF7C9FC3046FDF742FCF6A0FFF7CD
:102F8000C3FC3046FDF73CFCD248FEF78FFB3046D1
:102F9000FDF736FCF448FFF7B7FC1A208DF8100057
:102FA0006423012204A9CB48FEF74AFC0122C84948
:102FB000C848FEF71BFC298811B1C54800F04CFA3F
:102FC0003046FDF71DFCC248FFF7ECFDC048FFF797
:102FD0000FFFBF48FFF7A6FEE4A1E548FDF7F5F8AF
:102FE00008B9FDF7A7FBE3A0FFF78EFC41F2883894
:102FF0004046FDF705FCE1A0FFF786FC3046FDF7F3
:10300000FFFB0122B249B348FEF7F0FBB148FEF7DF
:103010004DFBDEA0FFF778FC3046FDF7F1FBBAA0D0
:10302000FFF772FC3046FDF7EBFBD4A0FFF76CFC1A
:103030003046FDF7E5FBAAA0FFF766FC3046FDF73A
:10304000DFFBAAA0FFF760FC2046FDF7D9FBAFA08D
:10305000FFF75AFC3846FDF7D3FBCDA0FFF754FC31
:1030600041F27070FDF7CCFBA8A0FFF74DFC38468D
:10307000FDF7C6FBB4A0FFF747FC3046FDF7C0FBE9
:10308000B5A0FFF741FC3046FDF7BAFBFFF768FD3E
:1030900000242C808F48FEF709FBC748FFF734FC5B
:1030A00001228B498B48FEF7A1FB298811B1884882
:1030B00000F0D2F9BA463846FDF7A2FB8448FFF784
:1030C000D1FDB2A0FFF720FC4046FDF799FBABA075
:1030D000FFF71AFC37463046FDF792FBA8462E460E
:1030E0002C8001227A497B48FEF780FB7948FEF765
:1030F000DDFAA6A0FFF708FC3846FDF781FB82A0A9
:10310000FFF702FC3846FDF77BFB75A0FFF7FCFBE1
:103110003846FDF775FB6B491831081FFDF7FAF8C3
:10312000142568482B4600224FF48A71943000958C
:10313000FEF752FD634814232C2200211C30009519
:10314000FEF74AFD5F4814234F22002158300095B6
:10315000FEF742FDFF25CDE90054984B98A22C21A3
:103160003620FFF73BF8CDE90054944B95A24F2150
:103170003620FFF733F8CDE90054934B934A0221F0
:103180000020FFF72BF8142358220021BB200095C4
:10319000FFF7C6FC764A6FF02F0764321078D178BB
:1031A000303800EB4003C3EBC01001EBC001507896
:1031B00064235843937803EB830300EB43000844F4
:1031C000A0F5A050D038B06053799179303B03EB33
:1031D000830307EB43031944F160537A127A303AC0
:1031E00002EB820207EB42021A443261FFF730FB26
:1031F000764ACDE90054744B643A7021FF20FEF703
:10320000EDFF5046FDF7FCFA4E46D9F80000FDF7F9
:1032100023F96E48D823417C827C303901EB81014F
:1032200003EB410111448DF80C10017D427D3039D2
:1032300001EB810107EB410111448DF80D10017E76
:10324000C07DCDE90054303800EB800007EB400032
:1032500008448DF80E005E4B02AA33216420FEF76D
:10326000FBFF47464FF4FA58414A4149643259A09E
:10327000FFF74AFB13491831081FFDF74BF8D7E950
:10328000051257A0FFF740FB6423222216211520C8
:103290000095FFF745FCCDE90045534B2C21142048
:1032A0007A69FEF7C7FDCDE900454F4B4F21142049
:1032B000BA69FEF7BFFD3068FDF7CEF84046FDF76E
:1032C0009FFAD1E700000020A8020020A0080020FB
:1032D000B8020020E808002041540D0A0000000058
:1032E00041542B5253540D0A0000000041542B430B
:1032F000574A41503D2248414E54414F222C2231E1
:1033000032333435363761220D0A000041542B43E5
:10331000574D4F44453D310D0A00000041542B43A9
:10332000495053544152543D22544350222C22615F
:1033300070692E73656E6976657273652E636F6D45
:10334000222C38300D0A000041542B4349504D4F78
:1033500044453D310D0A000041542B43495053452B
:103360004E440D0A0000000094850008E998B4005E
:10337000B80600200D0A2B2B2B00000041542B43D4
:103380004950434C4F53450D0A0000002B2B2B0096
:1033900041542B43495053544152543D22544350BD
:1033A000222C22662E6D2E73756E696E672E636FEA
:1033B0006D222C38300D0A00088600089802002083
:1033C000250000004300000088020020E4070020E0
:1033D000A0020020257320202025730A0000000091
:1033E00025642025640A000090020020F0B50B300F
:1033F000154D20F007010024144A0FE003688B42AA
:103400000BD38B4205D95E1A43184768C3E900679E
:1034100000E04368136002C004E0021D1068002849
:10342000ECD12046002802D1286808B10020F0BD68
:10343000064A07481060074A121A22F00702C0E93C
:10344000002401202860D7E7B4020020B002002049
:1034500044090020403D0020014601A0FFF754BA76
:1034600025730A0010B50446FDF70AFC0349B0FBBA
:10347000F1F16143491EFDD210BD000000093D007D
:103480000000000000000000010203040607080914
:103490000000000001020304C4E30000000000007B
:1034A00000001DC01D803BFF3B073F777E76F87014
:1034B000FBFEFBFE3F773F773E73387038703BE092
:1034C00000000000000000000000000000000000FC
:1034D00000000000000000000000000000000000EC
:1034E00000000000000000000000000000000000DC
:1034F00000000000000000000000000000000000CC
:1035000000000000000000000000000000000000BB
:1035100000000000000000000000000000000000AB
:10352000000000000000000000000000000000009B
:103530000000000000000000000000000000BAC30E
:103540000000000000000000300073FF700FFE1E3E
:103550007E3C6E38EE30EFFFFC307C3038303E3051
:103560007E30E030C1F000000000000000000000EC
:10357000000000000000000000000000000000004B
:10358000000000000000000000000000000000003B
:10359000000000000000000000000000000000002B
:1035A000000000000000000000000000000000001B
:1035B000000000000000000000000000000000000B
:1035C00000000000000000000000000000000000FB
:1035D00000000000000000000000000000000000EB
:1035E00000000000CAF70000000000000000300EDC
:1035F000300E3FEE30EEFCFF76CE77FE7BFEFFFE18
:10360000F3DEF3CE37EE3E6E3C0E303E000000009F
:1036100000000000000000000000000000000000AA
:10362000000000000000000000000000000000009A
:10363000000000000000000000000000000000008A
:10364000000000000000000000000000000000007A
:10365000000000000000000000000000000000006A
:10366000000000000000000000000000000000005A
:10367000000000000000000000000000000000004A
:1036800000000000000000000000DDAE00000000AF
:10369000000000000670FFFF3E7038007FFFE00072
:1036A000FFFC3B8C39CCFFFF739C71DC7FFF001C5F
:1036B00001F8000000000000000000000000000011
:1036C00000000000000000000000000000000000FA
:1036D00000000000000000000000000000000000EA
:1036E00000000000000000000000000000000000DA
:1036F00000000000000000000000000000000000CA
:1037000000000000000000000000000000000000B9
:1037100000000000000000000000000000000000A9
:103720000000000000000000000000000000000099
:10373000C5C90000000000000000E01FFFF03E00CF
:103740000E1FCFFBFFF83FFF0FFF7FD87FDC6FCE50
:10375000EDFFFDF7F9C000000000000000000000D0
:103760000000000000000000000000000000000059
:103770000000000000000000000000000000000049
:103780000000000000000000000000000000000039
:103790000000000000000000000000000000000029
:1037A0000000000000000000000000000000000019
:1037B0000000000000000000000000000000000009
:1037C00000000000000000000000000000000000F9
:1037D0000000000000006100000000000000000088
:1037E00000000000000000003E00670007800F801E
:1037F0007F80E380E780E7807F800000000000009A
:1038000000000000000000000000000000000000B8
:1038100000000000000000000000000000000000A8
:103820000000000000000000000000000000000098
:103830000000000000000000000000000000000088
:103840000000000000000000000000000000000078
:103850000000000000000000000000000000000068
:103860000000000000000000000000000000000058
:1038700000000000000000000000000062000000E6
:1038800000000000000070007000700070007F00F9
:103890007B8071C071C071C071C071C07B807F00BE
:1038A0000000000000000000000000000000000018
:1038B0000000000000000000000000000000000008
:1038C00000000000000000000000000000000000F8
:1038D00000000000000000000000000000000000E8
:1038E00000000000000000000000000000000000D8
:1038F00000000000000000000000000000000000C8
:1039000000000000000000000000000000000000B7
:1039100000000000000000000000000000000000A7
:103920000000630000000000000000000000000034
:10393000000000003F007300F000E000E000E00045
:10394000F00073003F0000000000000000000000D5
:103950000000000000000000000000000000000067
:103960000000000000000000000000000000000057
:103970000000000000000000000000000000000047
:103980000000000000000000000000000000000037
:103990000000000000000000000000000000000027
:1039A0000000000000000000000000000000000017
:1039B0000000000000000000000000000000000007
:1039C00000000000000000004100000000000000B6
:1039D000000000000E001F001F001F003B803B8006
:1039E00071807FC071C0E0E0E0E0E0E00000000036
:1039F00000000000000000000000000000000000C7
:103A000000000000000000000000000000000000B6
:103A100000000000000000000000000000000000A6
:103A20000000000000000000000000000000000096
:103A30000000000000000000000000000000000086
:103A40000000000000000000000000000000000076
:103A50000000000000000000000000000000000066
:103A60000000000000000000000000000000D6DCA4
:103A7000000000000000000000007FFF700771C719
:103A80007FFF71C771C77FFF70077FF76E376E3793
:103A9000EFF7EE07C03E000000000000000000004D
:103AA0000000000000000000000000000000000016
:103AB0000000000000000000000000000000000006
:103AC00000000000000000000000000000000000F6
:103AD00000000000000000000000000000000000E6
:103AE00000000000000000000000000000000000D6
:103AF00000000000000000000000000000000000C6
:103B000000000000000000000000000000000000B5
:103B100000000000D2BB0000000000000000000018
:103B2000000000000000000000000000FFFF000097
:103B30000000000000000000000000000000000085
:103B40000000000000000000000000000000000075
:103B50000000000000000000000000000000000065
:103B60000000000000000000000000000000000055
:103B70000000000000000000000000000000000045
:103B80000000000000000000000000000000000035
:103B90000000000000000000000000000000000025
:103BA0000000000000000000000000000000000015
:103BB00000000000000000000000B6FE0000000051
:103BC00000000000000000007FFE00000000000078
:103BD000000000000000000000000000FFFF0000E7
:103BE00000000000000000000000000000000000D5
:103BF00000000000000000000000000000000000C5
:103C000000000000000000000000000000000000B4
:103C100000000000000000000000000000000000A4
:103C20000000000000000000000000000000000094
:103C30000000000000000000000000000000000084
:103C40000000000000000000000000000000000074
:103C50000000000000000000000000000000000064
:103C6000C8FD000000000000000000007FFE000012
:103C700000000000000000007FFE000000000000C7
:103C800000000000FFFF0000000000000000000036
:103C90000000000000000000000000000000000024
:103CA0000000000000000000000000000000000014
:103CB0000000000000000000000000000000000004
:103CC00000000000000000000000000000000000F4
:103CD00000000000000000000000000000000000E4
:103CE00000000000000000000000000000000000D4
:103CF00000000000000000000000000000000000C4
:103D0000000000000000CBC4000000000000000024
:103D100000007FFF67676767676767676667666753
:103D20006E677C7F7807600760077FFF6007000091
:103D30000000000000000000000000000000000083
:103D40000000000000000000000000000000000073
:103D50000000000000000000000000000000000063
:103D60000000000000000000000000000000000053
:103D70000000000000000000000000000000000043
:103D80000000000000000000000000000000000033
:103D90000000000000000000000000000000000023
:103DA000000000000000000000000000CEE5000060
:103DB0000000000000000000FFFF060006000E00EB
:103DC0000E00FFFC0E1C0C1C0C1C1C1C1C1C1C1CC8
:103DD000FFFF0000000000000000000000000000E5
:103DE00000000000000000000000000000000000D3
:103DF00000000000000000000000000000000000C3
:103E000000000000000000000000000000000000B2
:103E100000000000000000000000000000000000A2
:103E20000000000000000000000000000000000092
:103E30000000000000000000000000000000000082
:103E40000000000000000000000000000000000072
:103E50000000C1F9000000000000000003800380A2
:103E600001C001C0FFFF000000000E700E701C3882
:103E7000381C380E700EE007E0070000000000005C
:103E80000000000000000000000000000000000032
:103E90000000000000000000000000000000000022
:103EA0000000000000000000000000000000000012
:103EB0000000000000000000000000000000000002
:103EC00000000000000000000000000000000000F2
:103ED00000000000000000000000000000000000E2
:103EE00000000000000000000000000000000000D2
:103EF0000000000000000000C8D500000000000025
:103F0000000000003FFC381C381C381C381C381CD2
:103F10003FFC381C381C381C381C381C3FFC381C33
:103F20000000000000000000000000000000000091
:103F30000000000000000000000000000000000081
:103F40000000000000000000000000000000000071
:103F50000000000000000000000000000000000061
:103F60000000000000000000000000000000000051
:103F70000000000000000000000000000000000041
:103F80000000000000000000000000000000000031
:103F90000000000000000000000000000000F6B279
:103FA00000000000000000007FFE0180FFFFE187AD
:103FB0001E00F9FF7DB77FFFFDB7DFFFFE303FFF3B
:103FC000FE303FFF00000000000000000000000085
:103FD00000000000000000000000000000000000E1
:103FE00000000000000000000000000000000000D1
:103FF00000000000000000000000000000000000C1
:1040000000000000000000000000000000000000B0
:1040100000000000000000000000000000000000A0
:104020000000000000000000000000000000000090
:104030000000000000000000000000000000000080
:104040000000000000000000000000000000000070
:104050000000000000000000000000000000000060
:104060000000000000000C000C000C000C000C0014
:104070000C000C000C0000000C0000000000000010
:1040800000000000000000001DC01DC00880088066
:104090000880000000000000000000000000000098
:1040A0000000000000000D800D800D800D803FC0DD
:1040B0001B003FC01B001B001B001B00000000007A
:1040C0000000000004001F803180318038001E0095
:1040D0000F000380318031803F00040004000000A5
:1040E00000000000000018002400240018C0078011
:1040F0001E003180024002400180000000000000EC
:1041000000000000000000000F0018001800180058
:104110000C001D80370033001D80000000000000EF
:10412000000000000000000007000700020002007D
:10413000020000000000000000000000000000007D
:104140000000000000000300030006000E000C0049
:104150000C000C000C000E00060003000300000021
:10416000000000000000180018000C000600060007
:1041700006000600060006000C001C0018000000E7
:10418000000000000000060006003FC03FC00F0016
:104190001F801980000000000000000000000000E7
:1041A0000000000000000000000004000400040003
:1041B0003F80040004000400000000000000000034
:1041C00000000000000000000000000000000000EF
:1041D000000000000000060004000C0008000800B9
:1041E00000000000000000000000000000000000CF
:1041F0003F80000000000000000000000000000000
:1042000000000000000000000000000000000000AE
:104210000000000000000C000C0000000000000086
:104220000000000000C000C0018001800300030006
:1042300006000C000C0018001800300030000000D0
:104240000000000000000E001B0031803180318032
:104250003180318031801B000E0000000000000022
:1042600000000000000006003E00060006000600F8
:1042700006000600060006003FC000000000000027
:104280000000000000000F00198031803180030021
:1042900006000C00180030003F8000000000000005
:1042A0000000000000003F006180018003001F004B
:1042B00003800180018061803F0000000000000059
:1042C000000000000000070007000F000B001B00AB
:1042D000130033003F8003000F8000000000000047
:1042E0000000000000001F801800180018001F00C8
:1042F00011800180018021801F000000000000006B
:1043000000000000000007801C001800300037008B
:1043100039803180318019800F00000000000000DA
:104320000000000000007F004300030006000600BC
:10433000060006000C000C000C000000000000004D
:104340000000000000001F003180318031801F001C
:1043500031803180318031801F000000000000007A
:104360000000000000001E003300318031803380E7
:104370001D800180030007003C00000000000000D9
:104380000000000000000000000000000C000C0015
:104390000000000000000C000C0000000000000005
:1043A0000000000000000000000000000300030007
:1043B00000000000000006000400080008000000E3
:1043C000000000000000000000C00300040018000E
:1043D000600018000400030000C00000000000009E
:1043E00000000000000000000000000000007FC08E
:1043F00000007FC00000000000000000000000007E
:10440000000000000000000060001800040003002D
:1044100000C003000400180060000000000000005D
:1044200000000000000000001F003180318001808A
:1044300007000C000C0000000C0000000000000051
:104440000000000000000E001100210021002700E4
:10445000290029002700200011000E0000000000A4
:1044600000000000000000003F000F00090019805C
:1044700019801F8030C030C079E0000000000000CB
:1044800000000000000000007F003180318031809A
:104490003F003180318031807F000000000000004B
:1044A00000000000000000001F4030C060406000BD
:1044B00060006000604030801F00000000000000CD
:1044C00000000000000000007F00318030C030C0DC
:1044D00030C030C030C031807F00000000000000DC
:1044E00000000000000000007F803080308032003B
:1044F0003E003200308030807F80000000000000ED
:1045000000000000000000007FC03040304032005A
:104510003E003200300030007C000000000000004F
:1045200000000000000000001E80318060806000FC
:10453000600067C0618031801F0000000000000043
:1045400000000000000000007BC03180318031801D
:104550003F803180318031807BC00000000000004E
:1045600000000000000000003FC00600060006003A
:1045700006000600060006003FC000000000000024
:1045800000000000000000001FC003000300030043
:1045900003006300630063003E00000000000000B1
:1045A00000000000000000007BC0318033003600B6
:1045B0003C003E003300318079C000000000000064
:1045C00000000000000000007E0018001800180025
:1045D00018001840184018407FC00000000000007C
:1045E0000000000000000000E0E060C071C07BC07F
:1045F0006AC06EC064C060C0FBE000000000000044
:10460000000000000000000073C0318039803D8050
:1046100035803780338031807980000000000000D1
:1046200000000000000000001F00318060C060C07A
:1046300060C060C060C031801F000000000000004A
:1046400000000000000000007F00318031803180D8
:1046500031803F00300030007E000000000000008C
:1046600000000000000000001F00318060C060C03A
:1046700060C060C060C031801F000CC01F8000009F
:1046800000000000000000007F0031803180318098
:104690003E003300318031807CE0000000000000EB
:1046A00000000000000000001F80318031803800D1
:1046B0001F000380318031803F00000000000000B7
:1046C00000000000000000007F804C804C804C8087
:1046D0000C000C000C000C003F000000000000006B
:1046E00000000000000000007BC03180318031807C
:1046F00031803180318031801F00000000000000D7
:1047000000000000000000007BC0318031801B00F1
:104710001B001B000A000E000E000000000000003D
:104720000000000000000000FBE060C064C06EC03C
:104730006EC02A803B803B8031800000000000007A
:1047400000000000000000007BC031801B000E0054
:104750000E000E001B0031807BC000000000000036
:10476000000000000000000079E030C019800F0058
:1047700006000600060006001F8000000000000082
:1047800000000000000000003F80218023000600A0
:1047900004000C00188030803F8000000000000002
:1047A000000000000000078006000600060006006A
:1047B000060006000600060006000600078000004E
:1047C0000000000030003000180018000C000C0041
:1047D0000600030003000180018000C000C000004B
:1047E0000000000000001E00060006000600060093
:1047F0000600060006000600060006001E00000077
:104800000000000004000A000A001100208020803F
:104810000000000000000000000000000000000098
:104820000000000000000000000000000000000088
:104830000000000000000000000000000000000078
:104840000000FFE00800040002000000000000007B
:104850000000000000000000000000000000000058
:104860000000000000000000000000001F000180A8
:1048700001801F80318033801DC0000000000000D7
:104880000000000000007000300030003700398068
:1048900030C030C030C03980770000000000000018
:1048A0000000000000000000000000001E803180B9
:1048B00060806000608031801F0000000000000008
:1048C0000000000000000380018001801D80338013
:1048D00061806180618033801DC0000000000000A5
:1048E0000000000000000000000000001F003180F8
:1048F00060C07FC0600030C01F800000000000006A
:1049000000000000000007E00C000C003F800C00DD
:104910000C000C000C000C003F80000000000000A8
:104920000000000000000000000000001DC03380F7
:1049300061806180618033801D80018001801F0063
:1049400000000000000070003000300037003980A7
:1049500031803180318031807BC000000000000058
:104960000000000000000600060000001E00060017
:1049700006000600060006003FC000000000000020
:104980000000000000000600060000003F000300D9
:1049900003000300030003000300030003003E00C4
:1049A000000000000000700030003000378036004A
:1049B0003C003C003600330077C0000000000000DF
:1049C0000000000000001E000600060006000600B1
:1049D00006000600060006003FC0000000000000C0
:1049E0000000000000000000000000007F8036C0D2
:1049F00036C036C036C036C076E000000000000089
:104A00000000000000000000000000007700398076
:104A100031803180318031807BC000000000000097
:104A20000000000000000000000000001F003180B6
:104A300060C060C060C031801F0000000000000046
:104A40000000000000000000000000007700398036
:104A500030C030C030C039803700300030007C00BA
:104A60000000000000000000000000001DC03380B6
:104A700061806180618033801D800180018007C07A
:104A80000000000000000000000000007B801CC04F
:104A900018001800180018007F0000000000000037
:104AA0000000000000000000000000001F803180B6
:104AB0003C001F00038031803F0000000000000028
:104AC0000000000000001800180018007F00180007
:104AD00018001800180018800F00000000000000E7
:104AE0000000000000000000000000007380318022
:104AF00031803180318033801DC000000000000013
:104B00000000000000000000000000007BC03180B9
:104B100031801B001B000E000E0000000000000092
:104B2000000000000000000000000000F1E060C094
:104B300064C06EC03B803B803180000000000000FC
:104B40000000000000000000000000007BC01B000F
:104B50000E000E000E001B007BC0000000000000D5
:104B600000000000000000000000000079E030C0FC
:104B7000198019800B000F00060006000C003E0093
:104B80000000000000000000000000003F802180C5
:104B900003000E00180030803F800000000000007D
:104BA00000000000000006000C000C000C000C00CF
:104BB0000C0018000C000C000C000C00060000009B
:104BC00000000000000006000600060006000600C7
:104BD00006000600060006000600060006000000AB
:104BE0000000000000000C000600060006000600A1
:104BF0000600030006000600060006000C00000088
:104C0000000000000000000000000000000018008C
:104C100024800300000000000000000000000000ED
:104C20000000000000000000000000000000000084
:104C30000000000000000000000000000000000074
:104C4000000000000000000000000000000007005D
:104C50000700070007000700070007000200020026
:104C60000000000007000700000000000000000036
:104C700000000000000000001CE01CE01CE00840F8
:104C80000840084000000000000000000000000094
:104C90000000000000000000000000000CC00CC07C
:104CA0000CC00CC00CC03FF03FF00CC00CC03FF07B
:104CB0003FF00CC00CC00CC00CC00CC000000000C9
:104CC000000000000300030007E00FE01860180078
:104CD0001F000FC000E0186018601FC01F80030095
:104CE00003000300000000000000000000001C00A2
:104CF0002200220022001C6001E00F803C0031C035
:104D000002200220022001C000000000000000007C
:104D10000000000000000000000003E00FE00C00B5
:104D20000C0006000F301FF019E018C01FF007B08C
:104D30000000000000000000000000000000000073
:104D400003800380038001000100010000000000D7
:104D50000000000000000000000000000000000053
:104D600000000000000000C000C001800180018040
:104D7000030003000300030003000300018001801F
:104D8000018000C000C000000000000000000C0016
:104D90000C000600060006000300030003000300E9
:104DA000030003000600060006000C000C000000D3
:104DB0000000000000000300030003001B601FE070
:104DC000078007800FC00CC000000000000000003A
:104DD00000000000000000000000000000000000D3
:104DE000000003000300030003003FF03FF0030056
:104DF00003000300030000000000000000000000AA
:104E000000000000000000000000000000000000A2
:104E10000000000000000000000003800300030009
:104E20000600060004000000000000000000000072
:104E3000000000000000000000003FE03FE0000034
:104E40000000000000000000000000000000000062
:104E50000000000000000000000000000000000052
:104E600000000000000000000000038003800380B9
:104E70000000000000000000000000000060006072
:104E800000C000C000C001800180030003000600D4
:104E900006000C000C000C001800180000000000B8
:104EA0000000000000000F801FC018C0306030609C
:104EB0003060306030603060306018C01FC00F80DC
:104EC00000000000000000000000000000000300DF
:104ED0001F001F0003000300030003000300030082
:104EE000030003001FE01FE00000000000000000BE
:104EF0000000000000000F801FC038E0306000603C
:104F000000C00180030006000C0018003FE03FE0F5
:104F100000000000000000000000000000000F8002
:104F20003FC030E0006000E007C007C000E0006064
:104F3000006060E07FC03F800000000000000000D3
:104F400000000000000001C003C003C006C00CC088
:104F50000CC018C030C03FE03FE000C003E003E0F9
:104F600000000000000000000000000000001FC062
:104F70001FC0180018001F801FC018E000600060EC
:104F8000006030E03FC01F80000000000000000013
:104F900000000000000003E00FE01E0018003800D1
:104FA00037803FC038E03060306018E01FC00780B5
:104FB00000000000000000000000000000003FE0D2
:104FC0003FE03060006000C000C000C00180018090
:104FD0000180030003000300000000000000000047
:104FE0000000000000000F801FC038E0306038E093
:104FF0001FC01FC038E03060306038E01FC00F8035
:1050000000000000000000000000000000000F0091
:105010001FC038C03060306038E01FE00F6000E033
:1050200000C003C03F803E00000000000000000000
:1050300000000000000000000000000000000380ED
:1050400003800380000000000000038003800380D1
:105050000000000000000000000000000000000050
:1050600000000000000001C001C001C000000000FD
:10507000000003800300060006000400000000009A
:1050800000000000000000000000003000F003C03D
:1050900007001C0078001C00070003C000F000306F
:1050A0000000000000000000000000000000000000
:1050B0000000000000007FF07FF0000000007FF0A3
:1050C0007FF0000000000000000000000000000071
:1050D0000000000000000000000030003C000F0055
:1050E000038000E0007800E003800F003C00300007
:1050F00000000000000000000000000000000000B0
:105100000F801FC018601860006001C0038003009A
:105110000000000007000700000000000000000081
:1051200000000000000003800C8008401040104088
:1051300011C012401240124011C010000800084077
:1051400007800000000000000000000000000000D8
:105150001F801F80038006C006C00CC00C601FE0CB
:105160001FE0303078787878000000000000000000
:1051700000000000000000003F803FC01860186081
:1051800018E01FC01FE01870183018303FF03FE0E3
:10519000000000000000000000000000000000000F
:1051A00007B00FF01C703830300030003000300095
:1051B00038301C700FE007C0000000000000000045
:1051C00000000000000000007F807FC030E03070F1
:1051D0003030303030303030307030E07FC07F8061
:1051E00000000000000000000000000000000000BF
:1051F0003FF03FF01830183019801F801F80198051
:10520000183018303FF03FF00000000000000000B0
:1052100000000000000000003FF03FF018301830A0
:1052200019801F801F801980180018003F003F0060
:10523000000000000000000000000000000000006E
:1052400007B01FF0187030303000300031F831F8FE
:10525000303018301FF007C00000000000000000D0
:1052600000000000000000003CF03CF018601860F6
:1052700018601FE01FE01860186018603CF03CF0F8
:10528000000000000000000000000000000000001E
:105290001FE01FE0030003000300030003000300FE
:1052A000030003001FE01FE00000000000000000FA
:1052B000000000000000000003F803F80060006038
:1052C0000060006030603060306030E03FC00F80D0
:1052D00000000000000000000000000000000000CE
:1052E0003EF83EF818E019801B001F001D8018C012
:1052F00018C018603E783E38000000000000000032
:1053000000000000000000003F003F000C000C0007
:105310000C000C000C000C300C300C303FF03FF057
:10532000000000000000000000000000000000007D
:105330007878787838703CF034B037B037B03330A4
:10534000333030307CF87CF80000000000000000B2
:10535000000000000000000039F03DF01C601E60FD
:105360001E601B601B6019E019E018E03EE03E6023
:10537000000000000000000000000000000000002D
:1053800007800FC01CE038703030303030303030A3
:1053900038701CE00FC00780000000000000000013
:1053A00000000000000000003FC03FE0187018300F
:1053B000183018701FE01FC0180018003F003F0091
:1053C00000000000000000000000000000000000DD
:1053D00007800FC01CE03870303030303030303053
:1053E00038701CE00FC0078007B00FF00CE0000021
:1053F00000000000000000003FC03FE018701830BF
:1054000018701FE01FC018E0186018703E383E1872
:10541000000000000000000000000000000000008C
:105420000FB01FF03870303038001F8007E0007078
:10543000303038703FE037C000000000000000004E
:1054400000000000000000003FF03FF03330333038
:105450003330030003000300030003000FC00FC03C
:10546000000000000000000000000000000000003C
:105470003CF03CF018601860186018601860186004
:1054800018601CE00FC00780000000000000000052
:10549000000000000000000078F078F0306030601C
:1054A00018C018C00D800D800D8007000700070090
:1054B00000000000000000000000000000000000EC
:1054C0007C7C7C7C301833983398339836D816D04F
:1054D0001C701C701C7018300000000000000000E0
:1054E000000000000000000078F078F0306018C084
:1054F0000D80070007000D8018C0306078F078F04C
:10550000000000000000000000000000000000009B
:105510003CF03CF018600CC00780078003000300DB
:10552000030003000FC00FC00000000000000000D7
:1055300000000000000000001FE01FE0186018C01D
:1055400001800300030006000C6018601FE01FE0EC
:10555000000000000000000000000000000003C088
:1055600003C0030003000300030003000300030063
:105570000300030003000300030003C003C0000096
:1055800000000000180018000C000C000C000600C1
:105590000600030003000180018000C000C000C0BD
:1055A00000600060000000000000000000000F002C
:1055B0000F000300030003000300030003000300C7
:1055C000030003000300030003000F000F000000AE
:1055D000000000000000020007000D8018C03060CD
:1055E000202000000000000000000000000000007B
:1055F00000000000000000000000000000000000AB
:10560000000000000000000000000000000000009A
:10561000000000000000000000000000000000008A
:10562000FFFCFFFC000004000300008000000000FD
:10563000000000000000000000000000000000006A
:10564000000000000000000000000000000000005A
:105650000000000000000FC01FE000600FE01FE02E
:10566000386030E03FF01F700000000000000000D4
:105670000000000000007000700030003000378033
:105680003FE0386030303030303038607FE0778055
:10569000000000000000000000000000000000000A
:1056A00000000000000007B01FF01830303030005C
:1056B000300038301FF00FC0000000000000000074
:1056C000000000000000007000700030003007B0E3
:1056D0001FF0187030303030303038701FF807B895
:1056E00000000000000000000000000000000000BA
:1056F00000000000000007801FE018603FF03FF04E
:10570000300018301FF007C000000000000000004B
:1057100000000000000003F007F0060006001FE094
:105720001FE0060006000600060006001FE01FE05E
:105730000000000000000000000000000000000069
:1057400000000000000007B81FF81870303030303B
:10575000303018701FF007B0003000700FE00FC03D
:1057600000000000000038003800180018001BC0BE
:105770001FE01C6018601860186018603CF03CF076
:105780000000000000000000000000000000030016
:105790000300000000001F001F00030003000300BF
:1057A000030003001FE01FE00000000000000000F5
:1057B00000000000000003000300000000001FC004
:1057C0001FC000C000C000C000C000C000C000C0BA
:1057D00000C001C03F803F00000000000000380012
:1057E0003800180018001BE01BE01B001E001E0004
:1057F0001B00198039F039F00000000000000000A3
:105800000000000000001F001F0003000300030051
:105810000300030003000300030003001FE01FE078
:105820000000000000000000000000000000000078
:105830000000000000007EE07FF033303330333072
:10584000333033307BB87BB800000000000000002C
:1058500000000000000000000000000000003BC04D
:105860003FE01C6018601860186018603CF03CF065
:105870000000000000000000000000000000000028
:1058800000000000000007801FE01860303030305A
:10589000303018601FE007800000000000000000AA
:1058A0000000000000000000000000000000778001
:1058B0007FE0386030303030303038603FE0378063
:1058C000300030007C007C00000000000000000080
:1058D00000000000000007B81FF8187030303030AA
:1058E000303018701FF007B00030003000F800F8BA
:1058F00000000000000000000000000000003CE08C
:105900003DF00F300E000C000C000C003FC03FC0FB
:105910000000000000000000000000000000000087
:1059200000000000000007E01FE018601E000FC02C
:1059300001E018601FE01F80000000000000000070
:1059400000000000000000000C000C000C003FE014
:105950003FE00C000C000C000C000C300FF007C0F6
:105960000000000000000000000000000000000037
:1059700000000000000038E038E01860186018608F
:10598000186018E01FF00F70000000000000000019
:10599000000000000000000000000000000078F09F
:1059A00078F0306018C018C00D800D800700070027
:1059B00000000000000000000000000000000000E7
:1059C00000000000000078F078F03260326037E0CC
:1059D0001DC01DC018C018C000000000000000005D
:1059E00000000000000000000000000000003CF08B
:1059F0003CF00CC00780030007800CC03CF03CF07A
:105A00000000000000000000000000000000000096
:105A100000000000000078F078F0306018C018C076
:105A20000D800F800700060006000C007F007F003D
:105A300000000000000000000000000000001FE067
:105A40001FE018C00180030006000C601FE01FE08B
:105A5000000000000000000000000000000001C085
:105A600003C00300030003000300030007000E004F
:105A70000700030003000300030003C001C000008F
:105A80000000000000000300030003000300030007
:105A900003000300030003000300030003000300EE
:105AA00003000300030000000000000000001C00D1
:105AB0001E00060006000600060006000700038020
:105AC000070006000600060006001E001C0000007D
:105AD00000000000000000000000000000000000C6
